{
    "contractName": "Ownable",
    "abi": [
        {
            "inputs": [],
            "stateMutability": "nonpayable",
            "type": "constructor"
        },
        {
            "anonymous": false,
            "inputs": [
                {
                    "indexed": true,
                    "internalType": "address",
                    "name": "previousOwner",
                    "type": "address"
                },
                {
                    "indexed": true,
                    "internalType": "address",
                    "name": "newOwner",
                    "type": "address"
                }
            ],
            "name": "OwnershipTransferred",
            "type": "event"
        },
        {
            "inputs": [],
            "name": "owner",
            "outputs": [
                {
                    "internalType": "address",
                    "name": "",
                    "type": "address"
                }
            ],
            "stateMutability": "view",
            "type": "function"
        },
        {
            "inputs": [],
            "name": "takeOwnership",
            "outputs": [],
            "stateMutability": "nonpayable",
            "type": "function"
        },
        {
            "inputs": [
                {
                    "internalType": "address",
                    "name": "nextOwner",
                    "type": "address"
                }
            ],
            "name": "transferOwnership",
            "outputs": [],
            "stateMutability": "nonpayable",
            "type": "function"
        }
    ],
    "bytecode": "608060405234801561001057600080fd5b50600080546001600160a01b0319163390811782556040519091907f8be0079c531659141344cd1fd0a4f28419497f9722a3daafe3b4186f6b6457e0908290a36102528061005f6000396000f3fe608060405234801561001057600080fd5b50600436106100415760003560e01c806360536172146100465780638da5cb5b14610050578063f2fde38b1461007f575b600080fd5b61004e610092565b005b600054610063906001600160a01b031681565b6040516001600160a01b03909116815260200160405180910390f35b61004e61008d3660046101ec565b61015d565b6001546001600160a01b031633146100fc5760405162461bcd60e51b815260206004820152602260248201527f4d75737420626520676976656e206f776e65727368697020746f20646f207468604482015261185d60f21b60648201526084015b60405180910390fd5b600154600080546040516001600160a01b0393841693909116917f8be0079c531659141344cd1fd0a4f28419497f9722a3daafe3b4186f6b6457e091a3600154600080546001600160a01b0319166001600160a01b03909216919091179055565b6000546001600160a01b031633146101ca5760405162461bcd60e51b815260206004820152602a60248201527f4f6e6c7920746865206f776e6572206f662074686520636f6e74726163742063604482015269185b88191bc81d1a185d60b21b60648201526084016100f3565b600180546001600160a01b0319166001600160a01b0392909216919091179055565b6000602082840312156101fe57600080fd5b81356001600160a01b038116811461021557600080fd5b939250505056fea26469706673582212207f1ed6a7bbc9911bd952bdd635e06540885041e6f39a2e1ad1ec3e154550ea6664736f6c63430008100033",
    "sourcePath": "c:/SYNE/audits/contracts/unido-1.sol",
    "compiler": {
        "name": "solc",
        "version": "0.8.16+commit.07a7930e"
    },
    "functionHashes": {
        "owner()": "8da5cb5b",
        "takeOwnership()": "60536172",
        "transferOwnership(address)": "f2fde38b"
    },
    "gasEstimates": {
        "creation": {
            "codeDepositCost": "118800",
            "executionCost": "25933",
            "totalCost": "144733"
        },
        "external": {
            "owner()": "2325",
            "takeOwnership()": "34391",
            "transferOwnership(address)": "26698"
        }
    }
}